2360000ZAGREBAÈKA BANKA D.D.                             92963223473100020131011                                                                                                                                                                                                                                                                                                                                                                                                                                                                                                                                                                                                                                                                                                                                                                                                                                                                                                                                                     900
2360000ZABAHR2X   HR1223600001500076927HRKGRAD ZAGREB                                                           ZAGREB                             02576651618178949372830002013101000021000                                                                                                                                                                                                                                                                                                                                                                                                                                                                                                                                                                                                                                                                                                                                                                                                                                         903
20HR1223600001500076927             ALEXANDER DOUGL HOYT                                                  MESNIÈKA 3/3                       10000 ZAGREB                       2013101020131010   000000000000000+000000000000000+000000000022176HR99                      HR050050237                   Dug otplata stana SU-005023                                                                                                                                                           20131010-LU002131010945201886605                                                                                                                                                                                                                                                                                                                                                                                                                                                                                                     905
20HR1223600001500076927             SLAVEN NOVAK                                                          V.RUŽDJAKA 18                      10000 ZAGREB                       2013101020131010   000000000000000+000000000000000+000000000019900HR99                      HR050522317-220               Otplata Stam kredita                                                                                                                                                                  20131010-LU002131010945203846605                                                                                                                                                                                                                                                                                                                                                                                                                                                                                                     905
10HR8123600001101436628             JAVNI BILJEŽNIK MAROSLAVAC ŽELJKA                                     AVENIJA DUBROVNIK 12               ZAGREB                             2013101020131010   000000000000000+000000000000000+000000000003750HR013201-0001-0008480008  HR0236602013              SCVETROŠAK OVRŠNOG POSTUPKA ZA GAJŠEK ZVONIMIR                                                                                                                                            20131010-HP003131009944616816204                                                                                                                                                                                                                                                                                                                                                                                                                                                                                                     905
10HR1210010051863000160             DRŽAVNI PRORAÈUN REPUBLIKE HRVATSKE                                   KATANÈIÆEVA 4                      ZAGREB                             2013101020131010   000000000000000+000000000000000+000000175614198HR013201-0001-0008490003  HR687056-61817894937      OTHRZAKONSKO IZDVAJANJE                                                                                                                                                                   20131010-HP003131009944616826204                                                                                                                                                                                                                                                                                                                                                                                                                                                                                                     905
10HR1523600003210192014             TURK SLAVICA                                                          PRILAZ BARUNA FILIPOVIÆA 26        ZAGREB                             2013101020131010   000000000000000+000000000000000+000000000018855HR013201-0001-0008500009  HR001249                  OTHRKRIVA DOZNAKA, TURK S.                                                                                                                                                                20131010-HP003131009944616836204                                                                                                                                                                                                                                                                                                                                                                                                                                                                                                     905
20HR1223600001500076927             JADRANKA BRLETIÆ                                                                                                                            2013101020131010   000000000000000+000000000000000+000000000015380HR99                      HR050499960-234               OTPLATA STAMB.KREDITA                                                                                                                                                                 20131010-LU002131010945271886605                                                                                                                                                                                                                                                                                                                                                                                                                                                                                                     905
20HR1223600001500076927             DAMIR SLAVIÆ                                                                                                                                2013101020131010   000000000000000+000000000000000+000000000025400HR99                      HR050641081-207               Otplata stambenog kredita                                                                                                                                                             20131010-LU002131010945280266605                                                                                                                                                                                                                                                                                                                                                                                                                                                                                                     905
20HR1223600001500076927             ZORAN RELIÆ                                                                                                                                 2013101020131010   000000000000000+000000000000000+000000000019287HR99                      HR050634115-208               Otplata stambenog kredita - rata 208                                                                                                                                                  20131010-LU002131010945280466605                                                                                                                                                                                                                                                                                                                                                                                                                                                                                                     905
20HR5324070001024070003             ÈAGALJ KREŠIMIR                                                       BRAÆE CVIJIÆA 32                   ZAGREB                             2013101020131010   000000000000000+000000000000000+000000000009800HR99                      HR050583995-218               R                                                                                                                                                                                     20131010-0113592140000172   1701                                                                                                                                                                                                                                                                                                                                                                                                                                                                                                     905
HR1223600001500076927HRKGRAD ZAGREB                                                           2832822013101020131009+000000198167062 000000000000000        000000000000000000000000000000 000000000000000+000000175636803+000000017875483+0000000404057420002000602                                                                                                                                                                                                                                                                                                                                                                                                                                                                                                                                                                                                                                                                                                                                                                 907
2360000ZABAHR2X   HR1223600001500016766EURGRAD ZAGREB                                                           ZAGREB                             02576651618178949372830002013101000031000                                                                                                                                                                                                                                                                                                                                                                                                                                                                                                                                                                                                                                                                                                                                                                                                                                         903
10HR0223400091510295819             RH MINISTARSTVO FINANCIJA                                             KATANÈIÆEVA 5                      10000 ZAGREB                       2013101020131010EUR000000007620081+000000000008250+000000000008250HR99                      HR007120910-978-1323444   HLRPZakonsko izdvajanje za  09/2013, pbo:7120910-978-132344-4, /prema RC Z-382646/                                                                                                        20131010-HK00313101094616821                                                                                                                                                                                                                                                                                                                                                                                                                                                                                                         905
HR1223600001500076927EURGRAD ZAGREB                                                           2832522013101020130909+000000006099374 000000000000000        000000000000000000000000000000 000000000000000+000000000008250+000000000000000+0000000060911240003000001                                                                                                                                                                                                                                                                                                                                                                                                                                                                                                                                                                                                                                                                                                                                                                 907
2013101100008000610                                                                                                                                                                                                                                                                                                                                                                                                                                                                                                                                                                                                                                                                                                                                                                                                                                                                                                                                                                                                                  909
                                                                                                                                                                                                                                                                                                                                                                                                                                                                                                                                                                                                                                                                                                                                                                                                                                                                                                                                                                                                                                     999
